:020000040800F2
:10000000B04700205D020008191E0008631C0008AC
:10001000C91D00088D030008C92300080000000066
:100020000000000000000000000000009D0100082A
:100030005904000800000000F9010008251E00080E
:1000400077020008770200087702000877020008AC
:10005000770200087702000877020008770200089C
:10006000770200087702000877020008770200088C
:10007000770200087702000877020008770200087C
:10008000770200087702000877020008770200086C
:10009000910300089D03000877020008770200081A
:1000A00077020008F51E00087702000877020008B2
:1000B000770200087702000877020008770200083C
:1000C000770200087702000877020008770200082C
:1000D00077020008BD2300087702000877020008B5
:1000E000770200087702000877020008770200080C
:1000F00077020008770200087702000877020008FC
:1001000077020008770200087702000877020008EB
:1001100077020008770200087702000877020008DB
:1001200077020008770200087702000877020008CB
:1001300077020008770200087702000877020008BB
:1001400077020008770200087702000877020008AB
:10015000770200087702000877020008770200089B
:10016000770200087702000877020008770200088B
:1001700077020008770200087702000800000000FC
:100180007702000877020008DFF80CD000F0ECF8E6
:100190000048004705270008B04700202C4B19688D
:1001A0000868B0E8F04F80F30988BFF36F8F4FF015
:1001B000000080F3118870470000000008480068C4
:1001C000006880F308884FF0000080F3148862B65E
:1001D00061B6BFF34F8FBFF36F8F00DF00BF00BF6B
:1001E00008ED00E0DFF80C00016841F470010160E7
:1001F000704700BF88ED00E0EFF30980BFF36F8F19
:10020000134B1A681EF0100F08BF20ED108A20E96A
:10021000F04F106009B44FF0500080F31188BFF325
:100220004F8FBFF36F8F03F04DF84FF0000080F356
:10023000118809BC19680868B0E8F04F1EF0100F6B
:1002400008BFB0EC108A80F30988BFF36F8F704746
:1002500028000020EFF30580704700000648804723
:1002600006480047FEE7FEE7FEE7FEE7FEE7FEE79B
:10027000FEE7FEE7FEE7FEE7E51E0008890100084D
:100280002DE9F05F0546002092469B4688460646CB
:10029000814640241BE0284641464746224600F05E
:1002A00053F853465A46C01A914110D31146184686
:1002B000224600F03AF82D1A67EB01084F46224615
:1002C0000120002100F031F817EB00094E41201EFB
:1002D000A4F10104DFDC484631462A464346BDE826
:1002E000F09F40EA01039B0703D009E008C9121FF1
:1002F00008C0042AFAD203E011F8013B00F8013BE0
:10030000521EF9D27047D2B201E000F8012B491E0B
:10031000FBD270470022F6E710B513460A460446A2
:100320001946FFF7F0FF204610BD202A04DB203AD3
:1003300000FA02F1002070479140C2F1200320FA38
:1003400003F3194390407047202A04DB203A21FA36
:1003500002F00021704721FA02F3D040C2F12002DE
:100360009140084319467047064C074D06E0E06887
:1003700040F0010394E8070098471034AC42F6D3EC
:10038000FFF706FF94400008B4400008FEE70000B5
:10039000014800F0F9B9000014040020014800F001
:1003A000F3B90000140400202DE9F0418AB007469B
:1003B000109C0E4690461D4628216846FFF7AAFF6E
:1003C00006F07F01F30905910120079000210691B5
:1003D000CDF8108008900BB96D016401280C0090D5
:1003E000A8B20190200C0290A0B203906946384652
:1003F00000F0B8F8002801D000F02FF80AB0BDE8EE
:10040000F081000038B51248009000F1200301226D
:100410000021F02003F076F90E4C206078B1032221
:100420000021012002F0F8FF606000280FD1502069
:1004300080F31188BFF34F8FBFF36F8FFEE750201B
:1004400080F31188BFF34F8FBFF36F8FFEE738BD86
:10045000040300200C000020704772B6FEE790F8FD
:100460002020012A07D0022A05D0416A41F48021C8
:10047000416201207047006842690A4342610020DE
:100480007047F0B590F820500468A468012D07D09B
:10049000022D05D0416A41F4802141620120F0BD66
:1004A00004F0806504F00066354301D1E50053D5C2
:1004B000C4F301640125A5401D608B684FF4C0752D
:1004C0009BB1CE6805EB041733434E6843EAC6037D
:1004D0000668F3514FF4C273076803EB04130E6907
:1004E000FE50097D012909D00DE00E88CB6805EB8F
:1004F000041743EA46530668F351EBE70168CE5808
:1005000046F48076CE501179D379567941EA036169
:1005100093791B0443EA062319434FF4C676036814
:1005200006EB041699511178D37841EA0361937868
:1005300052781B0443EA022211434FF4C473026849
:1005400003EB0413D150006805EB0411425842F04C
:10055000010242500020F0BD416A41F400114162A5
:100560000120F0BD10B590F82020012A07D0022A02
:1005700005D0416A41F480214162012010BD3C4810
:1005800000F50070026842F001020260026822F485
:100590007C52026002684B6A42EA032202600A7DD2
:1005A00002F01F0301229A40C3699343C361A0F57F
:1005B0000070CB69B3B9D0F80C329343C0F80C3259
:1005C0008C894B6864F31F434C6900EBC404C4F886
:1005D00040320C890B6864F31F434C6900EBC40480
:1005E000C4F84432CB69012B16D1D0F80C32134336
:1005F000C0F80C320C884B6864F31F434C6900EB65
:10060000C404C4F840320C89CB6864F31F434C69BE
:1006100000EBC404C4F844328B697BB1D0F80432D7
:100620001343C0F804320B6973B1D0F8143213438A
:10063000C0F81432096A01290CD010E0D0F8043255
:100640009343C0F80432EEE7D0F814329343C0F875
:100650001432EFE7D0F81C121143C0F81C12D0F886
:10066000001221F00101C0F80012002010BD0000AE
:1006700000640040704770B590F82040012C07D00E
:10068000022C05D0416A41F480214162012070BDF5
:1006900021B104682469A4072AD003E00468E4684F
:1006A000A4071FD04FF4D874056804EB01142D592A
:1006B00005F0040595600DB305682D59ED085560EA
:1006C00005682C5904F00204D4604FF4DA7405680C
:1006D00004EB01142E5906F00F06082E13D308253B
:1006E000156114E0416A41F400114162012070BDBE
:1006F000416A41F400114162012070BD05682D5925
:100700006D0D1560DCE72D5905F00F0515610568C5
:100710002D59C5F30725956105682C59240C5461A2
:100720004FF4DC72046802EB0112A4581C700468D8
:10073000A458240A5C700468A458240C9C700468B3
:10074000A258120EDA704FF4DE72046802EB011246
:10075000A4581C710468A458240A5C710468A45845
:10076000240C9C710468A258120EDA7131B1006831
:10077000016941F020010161002070BD0068C1687D
:1007800041F02001C160F7E72DE9F05F0546002444
:1007900028684669D0F804908768D0F80CA0D0F893
:1007A00010B0D0F81880F10748D0F90714D0012113
:1007B0008160B80703D5284600F030FA0CE07807CE
:1007C00002D54FF4006407E0380702D54FF4805497
:1007D00002E0284600F021FAF80516D529684FF402
:1007E00080708860B80503D5284600F019FA0CE03F
:1007F000780502D544F4005407E0380502D544F4E6
:10080000804402E0284600F00AFAF80316D5296869
:100810004FF480308860B80303D5284600F002FA10
:100820000CE0780302D544F4004407E0380302D515
:1008300044F4803402E0284600F0F3F9300707D58D
:100840005FEACA6004D544F4007429681020C860C7
:1008500070074FF0080707D55FEA0A7004D52868CB
:10086000C760284600F07CF9B00706D52868C06844
:10087000800702D0284600F075F9700607D55FEAB8
:10088000CB6004D544F48064296810200861B00668
:1008900007D55FEA0B7004D528680761284600F089
:1008A0008DF9F00606D528680069800702D0284631
:1008B00000F085F9B00308D55FEAC96005D529685D
:1008C00010204860284600F07BF9F00307D55FEA66
:1008D000097004D528684760284600F0A4F9300460
:1008E00046D55FEA497040D5F00504D55FEAC87087
:1008F00001D044F00104B00504D55FEA887001D549
:1009000044F00204700504D55FEA487001D544F054
:100910000404300529D518F0700F26D008F07000B7
:10092000402815D006DC102809D020280AD030280D
:1009300016D10AE050280ED0602811D10EE044F004
:1009400008040DE044F010040AE044F0200407E03D
:1009500044F0400404E044F0800401E044F4807476
:100960002868816921F0700181612968042048604C
:10097000002C05D0686A204368622846FFF77AFE9B
:10098000BDE8F09F70B50446002C03D094F8200019
:1009900010B104E0012070BD204600F09DF82068F1
:1009A000016841F00101016000F088FA0546052662
:1009B0000CE000F083FA401B0A2807D9606A40F473
:1009C0000030606284F82060012070BD20684068BB
:1009D000C007EED02068016821F00201016000F03C
:1009E0006DFA05460CE000F069FA401B0A2807D9A9
:1009F000606A40F40030606284F82060012070BDBD
:100A0000206840688007EED4207E01283FD020680F
:100A1000016821F080010160607E01283DD02068DE
:100A2000016821F040010160A07E01283BD02068D0
:100A3000016821F020010160E07E012839D02068A2
:100A4000016841F010010160207F012837D0206843
:100A5000016821F008010160607F012835D020681D
:100A6000016821F004010160D4E902010843D4E9DE
:100A70000412114308436168491E08432168C86194
:100A800000206062012084F82000002070BD2068F2
:100A9000016841F080010160BEE72068016841F013
:100AA00040010160C0E72068016841F02001016059
:100AB000C2E72068016821F010010160C4E72068E6
:100AC000016841F008010160C6E72068016841F053
:100AD00004010160C8E7000010B586B00446142187
:100AE00001A8FFF717FC1B49206888422FD100217D
:100AF0001948026842F000720260006800F000705D
:100B0000009015481038026842F008020260006840
:100B100000F008000090032001900222029203914D
:100B200004900920059001A90C4800F0D7F8002294
:100B30000521142000F05AFA142000F049FA00228E
:100B40000521152000F052FA152000F041FA06B0F8
:100B500010BD00000064004040380240000C02401C
:100B60007047000010B58CB000210B910DF105030A
:100B700004AAFFF780FD00281AD104980090089875
:100B80008DF804000B4C0BAB10226946206802F074
:100B90006AFE0BA9606802F0A7FC0B98002807D03A
:100BA00005494FF080500860BFF34F8FBFF36F8F40
:100BB0000CB010BD0C00002004ED00E07047704741
:100BC000704770B5044694F82000012805D0606A8B
:100BD00040F400206062012070BD022084F82000F3
:100BE0002068016821F00101016000F067F9054605
:100BF0000DE000F063F9401B0A2808D9606A40F450
:100C000000306062052084F82000012070BD20685B
:100C10004068C007EDD1606270BD70477047704793
:100C200070477047704770472DE9F0410446A76D43
:100C300000F044F9054694F835000026022806D055
:100C40008020606584F834600120BDE8F081206870
:100C5000016821F0160101602068416921F08001DE
:100C60004161206C08B9A06C20B12068016821F0B6
:100C7000080101602068016821F0010101600BE0BA
:100C800000F01CF9401B052806D9202034342062CE
:100C9000032060702670D8E720680068C007EFD195
:100CA00034343F2094F828108840B86001206070E8
:100CB00026700020C9E790F83510022903D0802162
:100CC000416501207047052180F8351000680168F2
:100CD00021F0010101600020704700002DE9F84F6C
:100CE0000022DFF89C914FF0010803274FF00F0C12
:100CF00009F1040AA9F1040B08FA02F50B682B406C
:100D0000AB426ED10C7904F00304012C01D0022C0B
:100D100015D18668540007FA04FE26EA0E06D1F8BB
:100D20000CE00EFA04FE4EEA060EC0F808E0446835
:100D3000AC430D79C5F300159540254345600C790A
:100D4000E443A40708D0C568540007FA04F6B54385
:100D50008E68A6402E43C6600C7904F00304022C72
:100D600011D1D40800EB8406356A5407E40E0CFA5E
:100D700004FE25EA0E05D1F810E00EFA04FE4EEA54
:100D8000050EC6F820E00568540007FA04F6B543DE
:100D90000E7906F00306A6402E4306604C6814F454
:100DA000403F67D0374C256845F48045256024686E
:100DB00004F480440094344C22F003052E19D6F834
:100DC000085894074FEA147E0CFA0EF4A5432F4CF2
:100DD000A04201D1002424E02D4CA04202D10124E4
:100DE0001FE047E02B4CA04201D1022419E02A4C1D
:100DF000A04201D1032414E0284CA04201D10424D4
:100E00000FE0274CA04201D105240AE0254CA04266
:100E100001D1062405E0244CA04201D1072400E0C2
:100E2000082404FA0EF42C43C6F80848D9F8004008
:100E30009C434D68ED0200D51C43C9F80040DAF828
:100E400000409C434D68AD0200D51C43CAF80040E9
:100E5000DBF800409C434D68AD0300D51C43CBF844
:100E60000040074D083D2C689C434E68F60300D5B2
:100E70001C432C60521C102AFFF43EAFBDE8F88FD3
:100E8000083C01404438024000300140000002406C
:100E90000004024000080240000C02400010024022
:100EA0000014024000180240001C0240002A01D039
:100EB00081617047090481617047000001488068C2
:100EC0007047000018000020024881680278114431
:100ED000816070471800002010B50B48016841F48C
:100EE00000710160016841F480610160016841F4B2
:100EF00080710160032000F099F80F2000F006F8DF
:100F000000F04AF8002010BD003C024030B587B028
:100F1000054600241B48016841F00101016000689A
:100F200000F00100009001A902A800F037F900F0DC
:100F300069F940001449B0FBF1F1491E1448134A05
:100F4000026040F2E732C260416004618460846103
:100F500000F07EFB044694B90D4800F09FFB044668
:100F60006CB9192000F034F8102D07D20022294660
:100F7000192000F03BF80748056000E0012407B0A5
:100F8000204630BD4438024040420F00000001407E
:100F9000840400201C00002082B00C48016841F449
:100FA00080410160006800F4804001900748001F04
:100FB000016841F080510160006800F080500190AC
:100FC00000220F21901E02B000F010B844380240F9
:100FD000002809DB00F01F02012191404009800038
:100FE00000F1E020C0F8001170470000F0B40D4699
:100FF0000D4B1B68C3F30223C3F10704042C00D973
:101000000424191D072901D2002300E0DB1E01265C
:1010100006FA04F1491E294099409E40761E16406A
:101020003143F0BC01F0E2B90CED00E000F0070143
:10103000054A10684FF6FF03184040EA01200349B3
:1010400008431060704700000CED00E00000FA0556
:101050002DE9F04704460D46002C13D0DFF8289107
:10106000D9F80000EFB200F00700A8420CD289F8CE
:101070000070D9F8000000F00700A84204D0012059
:10108000BDE8F0870120FBE72068404E810712D5BC
:10109000400703D5306840F4E05030602078000706
:1010A00003D5306840F4604030603068A16820F0BB
:1010B000F000084330602078C00731D033496068C1
:1010C0000839012808D002280BD0032809D0096864
:1010D00089070BD40120D3E70968890306D40120CE
:1010E000CEE70968890101D40120C9E7316821F000
:1010F000030101433160FFF7E1FE804641F2883A87
:1011000007E0FFF7DBFEA0EB0800504501D9032004
:10111000B6E73068616800F00C00B0EB810FF0D1E9
:10112000D9F8000000F00700A84209D989F800703A
:10113000D9F8000000F00700A84201D001209FE785
:101140002078400705D53068E16820F4E050084376
:1011500030602078000706D53068216920F46040AF
:1011600040EAC100306000F05DF83168084AC1F320
:101170000311515CC8400749086007480068FFF741
:10118000C5FE00207CE70000003C02400838024019
:1011900050400008240000201C0000200F220260A4
:1011A0000B4A136803F003034360136803F0F00372
:1011B0008360136803F4E053C360126802F4604272
:1011C000D20802610348006800F007000860704719
:1011D00008380240003C02400148006870470000A7
:1011E0002400002000B5FFF7F7FF04490968044A0E
:1011F000C1F38221515CC84000BD000008380240A4
:101200006040000800B5FFF7E7FF04490968044A99
:10121000C1F34231515CC84000BD000008380240B3
:101220006040000810B51748006810F00C0116481F
:1012300016D04310042912D0082911D1114C241FB3
:10124000216801F03F02216849020AD52068C0F3F5
:101250008810A0FB03010023FFF712F809E01846ED
:1012600010BD21680023C1F38811A1FB0001FFF725
:1012700007F82168C1F30141491C4900B0FBF1F0B6
:1012800010BD0000083802400024F4002DE9F84F9A
:101290000446002C13D02078DFF8A083C007A8F103
:1012A000040556D008F104000168C1F38101012949
:1012B0000CD00068C0F38100022803D00DE00120AB
:1012C000BDE8F88FD8F80000400206D528688003F2
:1012D0003FD5606870BB0120F2E76068B0F5803FE1
:1012E00010D0B0F5A02F12D0286820F480302860EC
:1012F000286820F4802028606068E0B1FFF7DEFDF8
:10130000064614E0286840F480302860F4E7286836
:1013100040F480202860286840F480302860EBE7A3
:10132000FFF7CCFD801B642801D90320C8E728689B
:101330008003F5D50DE0FFF7C1FD064606E0FFF797
:10134000BDFD801B642801D90320B9E7286880030C
:10135000F5D42078BA4F80074FF0000948D5B74838
:10136000001D016811F00C0F08D00068C0F3810067
:10137000022813D1D8F8000040020FD42868800753
:1013800004D5E068012801D0012099E72868216987
:1013900020F0F80040EAC100286029E0E068B8B118
:1013A00001203860FFF78AFD064606E0FFF786FD5C
:1013B000801B022801D9032082E728688007F5D521
:1013C0002868216920F0F80040EAC10028600FE099
:1013D000C7F80090FFF772FD064606E0FFF76EFDC6
:1013E000801B022801D903206AE728688007F5D40A
:1013F0002078000729D5DFF844A2924861690AF1F4
:10140000700A89B101210160FFF758FD064606E028
:10141000FFF754FD801B022801D9032050E7DAF8BA
:1014200000008007F4D510E0C0F80090FFF746FDFB
:10143000064606E0FFF742FD801B022801D9032083
:101440003EE7DAF800008007F4D42078400778D52A
:101450004FF0000A79483C300068C0000BD4774850
:101460003C30016841F080510160006800F080501C
:1014700000904FF0010ADFF8D0B1DBF80000C005A2
:1014800014D4DBF8000040F48070CBF80000FFF7C4
:1014900015FD064606E0FFF711FD801B022801D965
:1014A00003200DE7DBF80000C005F4D5634EA0680B
:1014B0006C3601280FD0052812D0306820F00100CA
:1014C0003060306820F004003060A068F8B1FFF7A9
:1014D000F5FC834617E0306840F001003060F4E727
:1014E000306840F004003060306840F00100306047
:1014F000EBE7FFF7E3FCA0EB0B0141F28830814200
:1015000001D90320DCE630688007F2D510E0FFF750
:10151000D5FC834609E0FFF7D1FCA0EB0B0141F2BB
:101520008830814201D90320CAE630688007F2D4AE
:10153000BAF1010F05D141483C30016821F08051DA
:101540000160A069C0B33D49091D09684FF0FF362D
:10155000C1F38101022946D0022805D0C7F8609066
:10156000FFF7ACFC04463AE0C7F86090FFF7A6FC32
:10157000814607E0FFF7A2FCA0EB0900022801D991
:1015800003209DE628688001F4D4D4E907010843CC
:10159000616AA26A890106EB520241EA02410843EC
:1015A00094F82C1040EA0160C8F800000120386669
:1015B000FFF784FC044607E03DE0FFF77FFC001BDB
:1015C000022801D903207BE628688001F5D532E0A6
:1015D000FFF774FC001B022801D9032070E628687D
:1015E0008001F5D427E0012823D0D8F80000E26973
:1015F00000F4800191421AD1226A00F03F01914229
:1016000015D147F6C071626A0140B1EB821F0ED15D
:10161000A26A00F4403106EB5202B1EB024F06D150
:1016200094F82C1000F07060B0EB016F03D0012033
:1016300046E6012044E6002042E60000043802406D
:1016400000004742800E47420070004070477047DC
:1016500010B50446002C03D094F83D0010B107E00B
:10166000012010BD002084F83C00204600F015F851
:10167000022084F83D00211D206800F041FC01207B
:101680003D3460726070A070E07020716071A07174
:10169000E07120722070002010BD704790F83D105E
:1016A000012901D001207047022180F83D10016816
:1016B000CA6842F00102CA6000681449884214D026
:1016C000B0F1804F11D0124988420ED011498842A2
:1016D0000BD01149884208D01049884205D01049E2
:1016E000884202D00F49884209D1816801F0070180
:1016F000062908D0016841F00101016003E001689A
:1017000041F001010160002070470000000001402D
:101710000004004000080040000C004000040140AC
:10172000004001400018004070472DE9F041044698
:101730002068C56806694FF00007B10714D5A907EE
:1017400012D5F91E01610120207720688069800789
:1017500003D02046FFF7E8FF05E0204600F081F8BF
:10176000204600F07FF82777700717D5680715D552
:1017700021686FF0040008610220207720688069EA
:1017800010F4407F03D02046FFF7CEFF05E020464F
:1017900000F067F8204600F065F82777300716D587
:1017A000280714D521686FF008000861042020770D
:1017B0002068C069800703D02046FFF7B5FF05E029
:1017C000204600F04EF8204600F04CF82777F0064F
:1017D00017D5E80615D521686FF0100008610820BC
:1017E00020772068C06910F4407F03D02046FFF7BF
:1017F0009BFF05E0204600F034F8204600F032F868
:101800002777F00708D0E80706D021686FF00100BD
:101810000861204600F028F8300608D5280606D5CD
:1018200021686FF0800008612046FFF70FFF700607
:1018300008D5680606D521686FF04000086120468B
:1018400000F01CF8B0060AD5A80608D521686FF08C
:10185000200008612046BDE8F041FFF7F8BEBDE872
:10186000F08170477047000000680349884201D149
:10187000FFF72ABB70470000000001407047704727
:1018800070470000F8B5044622681068D1685369B3
:1018900000F00F06002E08D1850606D58D0604D56A
:1018A0002046BDE8F84000F030BC0025002E66D090
:1018B00003F0010601F49077374360D0C20705D0EA
:1018C000CA0503D5626C42F001026264420705D585
:1018D000DA0703D0626C42F002026264820705D527
:1018E000DA0703D0626C42F004026264020707D593
:1018F00001F02002324303D0626C42F008026264BD
:10190000626C002A31D0800604D5880602D52046B4
:1019100000F0FBFB20684069C0F38010616C090790
:1019200000D438B3204600F0BCFB20684069400674
:101930001CD52068143050E8001F21F0400140E819
:101940000012002AF5D1E06B60B15F490165E06BE0
:10195000FFF7B1F9002808D0E06B016D01B0BDE8D8
:10196000F04008472046FFF78BFFF8BD2046FFF701
:1019700087FFF8BD2046FFF783FF6564F8BD236B42
:10198000012B7DD1C3067BD5CB0679D51068506875
:10199000009050694FF0200340064FF002064FD5EB
:1019A000E26B1068406880B2DF00E8B3A18D81422D
:1019B0003BD9E085D069B8422DD020680C3050E882
:1019C000001F21F4807140E80012002AF5D1206840
:1019D000143050E8001F21F0010140E80012002AF5
:1019E000F5D12068143050E8001F21F0400140E894
:1019F0000012002AF5D184F84230256320680C30AB
:101A000050E8001F21F0100140E80012002AF5D133
:101A1000E06BFFF709F96663A08DE18D401A81B292
:101A20002046FFF72CFFF8BDFFE7A18D8142FAD1D8
:101A3000D069B842F7D166632046FFF720FFF2E78E
:101A4000A08DE18D401A81B2E08D0028EBD00029F5
:101A5000E9D020680C3050E8002F22F4907240E862
:101A60000027002FF5D12068143050E8002F22F015
:101A7000010240E80027002FF5D184F8423000E051
:101A80000FE0256320680C3050E8002F22F0100290
:101A900040E80023002BF5D166632046FFF7EFFEF8
:101AA000C1E7020606D50A0604D52046BDE8F8407F
:101AB00000F01ABC4006B6D54806B4D52046BDE8AD
:101AC000F84000F015BB00009520000870B50446F2
:101AD000002C04D094F84100002510B106E001204C
:101AE00070BD84F84050204600F024F8242084F88B
:101AF00041002068C16821F40051C160204600F017
:101B000069FB2068016921F4904101612068416905
:101B100021F02A0141612068C16841F40051C1608F
:101B20006564202084F8410084F842006563002049
:101B300070BD000010B586B00446142101A8FEF760
:101B4000E9FB18492068884229D10021164802681B
:101B500042F010020260006800F01000009012488D
:101B60001438026842F001020260006800F00100CF
:101B700000904FF4C0600190022002900391032076
:101B800004900720059001A90848FFF7A7F8002254
:101B900005212520FFF72AFA2520FFF719FA06B0BC
:101BA00010BD000000100140443802400000024017
:101BB00070472DE9F84304460E4615461F4694F833
:101BC0004100202802D00220BDE8F8837EB175B123
:101BD00000206064212084F84100FFF76FF98146FE
:101BE000A584E584A068B0F5805F02D003E0012001
:101BF000EAE7206920B1354600264FF0200815E0BD
:101C00000025FAE74B46002280212046009700F08D
:101C10009AFB18B184F841800320D5E7ADB1216863
:101C200015F8010B4860E08C401EE084E08C002831
:101C3000E8D14B46002240212046009700F083FB6C
:101C400050B184F841800320BEE736F8020B2168CA
:101C5000C0F308004860E6E784F841800020B3E75D
:101C60007047FEE710B510480E4901601021416031
:101C7000890681600021C1604FF480320261120147
:101C800042610176417601228276C1760177417701
:101C9000FEF778FE002803D0BDE81040FEF7DDBB5C
:101CA00010BD0000006400401404002010B596B080
:101CB0001C2211490FA8FEF714FB00210FA800F009
:101CC00054FD0E4C20601C220B491C3108A8FEF765
:101CD00008FB002108A800F048FD60601C220649AE
:101CE000383101A8FEF7FDFA054901A800F03DFDD5
:101CF000A06016B010BD0000FC3F000800000020EE
:101D00000C00002030B587B0142102A8FEF702FBBA
:101D100000241D48016841F004010160016801F0E0
:101D200004010191016841F080010160016801F046
:101D300080010191016841F002010160016801F038
:101D400002010191016841F001010160016801F0A7
:101D500001010191016841F008010160006800F093
:101D600008000190094D002204212846FFF79EF843
:101D700004210291012103910494059402A92846AB
:101D8000FEF7ACFF07B030BD30380240000402401F
:101D900010B50C480A4901604FF4E131416000215F
:101DA0008160C16001610C2242618161C161FFF704
:101DB0008DFE002803D0BDE81040FEF74EBB10BDDD
:101DC000001001403C040020FEE7000010B504486C
:101DD000FEF7F7FEBDE8104002210148FEF73FBBC9
:101DE0001404002010B588B000240194082B02D9F7
:101DF000092008B010BD5BB10291039404940594CE
:101E0000069301AB02A9FEF73CFB18B10320F0E7F3
:101E10000A20EEE70020ECE7FEE7012000F098FC46
:101E2000FBE7000010B5502080F31188BFF34F8FFF
:101E3000BFF36F8F01F02AFF18B104494FF08050B3
:101E40000860002080F3118810BD000004ED00E060
:101E500030B593B0302107A8FEF75CFA142102A830
:101E6000FEF758FA00251D48016841F080510160D5
:101E7000006800F0805001901948016841F48041E9
:101E80000160006800F48040019001200790000488
:101E9000089002240D9480010E9004200F90A82138
:101EA00010911194129007A8FFF7F0F908B1FEF70E
:101EB000D4FA0F200290039404954FF4A05005909B
:101EC0004FF480500690052102A8FFF7C1F80028C2
:101ED00001D0FEF7C2FA13B030BD00004038024016
:101EE000007000400248016841F4700101607047D1
:101EF00088ED00E00148FFF718BC000084040020D2
:101F00002DE9F0410268284D284E294FDFF8A4C082
:101F1000294B4FF08048A84209D0404507D0B04235
:101F200005D0B84203D0604501D0984203D122F0D9
:101F300070044A682243A8421BD0404519D0B042E1
:101F400017D0B84215D0604513D0984211D01B4C21
:101F5000A0420ED01A4CA0420BD01A4CA04208D07E
:101F6000194CA04205D0194CA04202D0184CA042F6
:101F700003D122F44074CA6822434C6922F08002E3
:101F800022438C68C4620C688462A84201D09842E3
:101F900001D109690163016841F004010160012177
:101FA00041610260BDE8F081000001400004004092
:101FB00000080040000C00400004014000400140C7
:101FC000004401400048014000180040001C00404F
:101FD0000020004004460C4D4FF0FF36314660684B
:101FE00001F0D2FA01280AD10A23102206492068FA
:101FF00001F0C9FB2A7905A0296800F0E7F9012062
:1020000000F0A6FBEAE700009000002043414E20CC
:1020100052783A204944203D20307825582C204CD5
:10202000656E203D2025640A000000001CB5114C9F
:1020300040F2F1764FF4FA750FA003C8CDE9000124
:1020400008236A4631460E48FFF7CCFE18B101213D
:102050000CA000F0BBF9206840F004002060284686
:1020600000F076FB216821F004012160284600F091
:102070006FFBE1E7140402400102030405060708B0
:1020800014040020E58F91E98081E5A4B1E8B4A5AE
:102090002564000010B5806B0021C185FFF7F0FBBF
:1020A00010BD01680C3151E8002F22F4907241E814
:1020B0000023002BF5D10168143151E8002F22F0E4
:1020C000010241E80023002BF5D1016B012909D160
:1020D00001680C3151E8002F22F0100241E8002382
:1020E000002BF5D1202180F84210002101637047B8
:1020F00010B50168CA6822F04002CA60202180F849
:102100004110FFF7ADFD002010BD08B590F842105A
:10211000222901D0022008BD82684FF480539A42E0
:1021200001D1016921B1816A9A421DD052B10BE0FF
:10213000816A02685268C2F308020A80816A891CB7
:10214000816209E002697AB10268526802F07F0296
:102150000A70816A491C8162C18D491E0904090CFB
:10216000C18505D0002008BD026852680A70F0E7FA
:102170000168CA6822F02002CA600168CA6822F4B5
:102180008072CA6001684A6922F001024A61202116
:1021900080F8421000214163026B012A03D0FFF74F
:1021A00007FD002008BD016301680C3151E8002FD4
:1021B00022F0100241E80023002BF5D101680A68E3
:1021C000D20602D50A6849680091818DFFF757FB56
:1021D000E7E700002DE9F041044620680169E26864
:1021E00021F4405111430161A1682069E269014372
:1021F0006069104301432068C26849F20C639A4346
:102200000A43C26020684169A26921F44071114308
:10221000416133492068884202D03249884202D164
:10222000FEF7F0FF01E0FEF7DDFFE169002319276B
:1022300064253226B1F5004F28D061688B0F8A00E3
:10224000A0FB0701FEF71CF80146B0FBF5F07A424F
:10225000504301EB800006EB0010B0FBF5F000F0FE
:10226000F002B1FBF5F002EB0012B1FBF5F07B429E
:10227000584301EB800006EB0010B0FBF5F021683D
:1022800000F00F0010448860BDE8F08161684A18D2
:10229000A0FB07015B41FDF7F3FF0146B0FBF5F042
:1022A0000201B1FBF5F06FF01803584301EB800019
:1022B00006EBC000B0FBF5F000F0F80002EB4002C6
:1022C000B1FBF5F0584301EB800006EBC000B0FB1A
:1022D000F5F0216800F0070010448860D4E70000A2
:1022E000001001400014014090F84110212901D054
:1022F000022070478168B1F5805F01D1016961B149
:10230000016A4A1C0262026809785160C18C491E48
:102310000904090CC1840AD013E0016A0268098823
:10232000C1F308015160016A891C0162EEE701688E
:10233000CA6822F08002CA600068C16841F04001AA
:10234000C160002070472DE9F84304460D4617464A
:102350009846089E25E0701C23D0FEF7AFFDA0EB49
:102360000800B0421BD8D6B12068C168490718D50B
:10237000802D16D0402D14D00168C943090710D410
:10238000002521680968406800902046FFF789FE13
:102390000820606484F840500120BDE8F8830320E1
:1023A000FBE72068006835EA000004D00020B8424E
:1023B000D1D00020F1E70120F9E700000148FFF744
:1023C00061BA00003C040020FEE700000FB4054B9A
:1023D00010B503A9044A029800F028F810BC5DF873
:1023E00014FB0000ED260008140000200907090E68
:1023F000002804DB00F1E02080F80014704700F0B2
:102400000F0000F1E02080F8141D704702E008C8BA
:10241000121F08C1002AFAD170477047002001E05E
:1024200001C1121F002AFBD1704700002DE9FF4FA8
:102430008DB09B460F460446002606E025280BD0AB
:102440005A460F999047641C761C20780028F5D1D5
:1024500011B03046BDE8F08F0025A846012298490A
:1024600000E0054314F8013F203B02FA03F0084264
:10247000F7D120782E2817D114F8010F45F0040564
:102480002A280ED06FF02F022078A0F13001092900
:102490000AD808EB880102EB410100EB0108641C3B
:1024A000F2E757F8048B641C20786C280DD004DC0C
:1024B0004C2812D06A2811D104E074280DD07A2853
:1024C0000CD10AE045F4001507E0617845F4801569
:1024D000814202D1641C05F58015641C2278692AAA
:1024E00045D008DC002AB3D0582A69D0632A10D01E
:1024F000642A08D13BE0702A67D0732A13D0752A6A
:102500005CD0782A5CD010465A460F999047761CCA
:10251000D3E017F8040B8DF8000000208DF80100BF
:10252000E946012003E057F8049B4FF0FF306907AC
:102530004FF0000501D40AE06D1C45450DDA8542D7
:10254000FADB19F805100029F6D106E06D1C85426A
:10255000FCDB19F805100029F8D12E4404E019F825
:10256000010B5A460F9990476D1EF8D2A5E00A203C
:102570000021CDE90801C5F3025002280DD001CF9A
:10258000C117031E71F100030DDA4FF0000CD0EB00
:102590000C006CEB01012D2308E0FF1D27F007075D
:1025A000F7E80201EDE72B0504D52B238DF8283041
:1025B00001233BE0EB0739D02023F7E70A2000E0B6
:1025C00010200021CDE9080107E01020002145F08E
:1025D0000405CDE908014FF00808C5F302500228B0
:1025E0000FD001CF00214FF0000A2B071FD5702A12
:1025F0000DD0DDE908C38CF0100C5CEA030C0CD0A4
:1026000015E0FF1D27F00707F7E80201EBE740227E
:102610008DF828204FF0010A0BE050EA010306D0A4
:1026200030238DF828308DF8292002239A46582A25
:1026300004D024A20DF120090B9209E026A2F9E7AB
:10264000DDE90823FDF71CFE0B9B9B5C09F8013DAF
:1026500050EA0102F4D1ADEB090020300890680780
:1026600001D44FF001080899884502DDA8EB01006C
:1026700000E000208046002506E00AA85A46405D9A
:102680000F9990476D1C761C5545F6DB04E0302011
:102690005A460F999047761CB8F10001A8F101083D
:1026A000F5DC05E019F8010B5A460F999047761CA6
:1026B0000899481E08900029F4DC641CC5E6000057
:1026C0000928010030313233343536373839616208
:1026D00063646566000000003031323334353637CC
:1026E00038394142434445460000000013B54FF4D9
:1026F0007A73012269460248FFF75BFA00981CBD15
:102700003C04002008B5FEF7E7FBFFF7A1FBFFF74D
:10271000F9FAFFF73DFBFFF7A5FA4FF4FE600090D2
:1027200040F2FF73002201210548FDF73DFEFFF74F
:102730004DFBFDF767FEFFF7B9FA00F011F8FEE771
:102740001404002001460020842900D0C81C7047D2
:1027500010B5002800D1012000F0C6FC002010BDFB
:1027600010B500F063FD002010BD7FB504460D4696
:102770006169B4F90800002910D0A16971B1FFF7AF
:10278000E1FFD4E90521CDE901210090D4E9001051
:102790002B46226901F038F9039010E0FFF7D2FFD1
:1027A00003A9CDE90001208A2B4682B2D4E90010AA
:1027B00001F0F8F8012802D0002004B070BD0398A1
:1027C000FBE700002DE9F04104460F46174EF5687F
:1027D0003068001D00F094FB38B9306890F82C1078
:1027E00001208840316981433161601C07D137B1D4
:1027F0003168BDE8F041091D0D4800F0C5BB2C440F
:1028000030684460AC4206D23168B06B091DBDE847
:10281000F04100F0A1BB3168706B091D00F09CFB1A
:10282000B06A844200D2B462BDE8F0812800002082
:102830009C07002070B5044600F0B2FB1C4DA86850
:10284000401CA860286810B1686938B10CE02C60A1
:10285000A868012808D100F035F905E02868E16A88
:10286000C06A884200D82C60686A401C6862E06ACE
:1028700001212A698140114329610E4900EB800042
:1028800001EB8000211D00F07FFB00F0A9FB6869CF
:1028900000280CD02868E16AC06A884207D206493D
:1028A0004FF080500860BFF34F8FBFF36F8F70BD44
:1028B00028000020CC04002004ED00E0D0E9012134
:1028C0000A440068101A814200D8401A704700007C
:1028D00070B50C4D0C4E11E000F062FBF068C4685E
:1028E000201D00F00DFBA868401EA8606868401E0F
:1028F000686000F075FB204600F008F86868002862
:10290000EAD170BD280000208807002010B50446D9
:1029100094F8610000280BD0012811D0022814D0AF
:10292000502080F31188BFF34F8FBFF36F8FFEE706
:10293000206B00F06BFB2046BDE8104000F066BB4A
:102940002046BDE8104000F061BB10BD416A00297F
:1029500004D0006B0068C0F1200070470020704771
:102960004FF470510F48420706D0C01D20F00700F9
:102970000C49411AC1F570510B4A10600023536095
:102980000144083921F00701183A11604B600B60CF
:102990000B1A436001604068906050604FF0004047
:1029A00050617047B00700207C000020074E4FF0B8
:1029B0008054074DFFF78CFF30680128FAD92C604E
:1029C000BFF34F8FBFF36F8FF4E70000CC040020FC
:1029D00004ED00E003460098002905D00260C363BF
:1029E0000164012100F03ABD0060F8E72DE9F041F3
:1029F0000446DDF818800D4616461F46324655211E
:102A00002846FDF789FCA84207D0502080F31188A2
:102A1000BFF34F8FBFF36F8FFEE720212046FDF7F6
:102A200079FCA561A660E76084F81C80BDE8F081B0
:102A30002DE9F0478246DDE908580A9C9946521E66
:102A4000206B00EB820020F00706700707D05020B3
:102A500080F31188BFF34F8FBFF36F8FFEE700271E
:102A600061B1002023180A5C83F834200A5C12B19B
:102A7000401C2028F6D384F8537001E084F83470A9
:102A8000202D00D31F25E5626565A765201D00F098
:102A900060FA04F1180000F05CFA2461C5F120002E
:102AA000A0616462E76584F860704A46514630462A
:102AB00000F014FA2060B8F1000F01D0C8F800400F
:102AC000BDE8F08770B50024114D04EB840005EBE0
:102AD000800000F033FA641C202CF6D30D4800F07F
:102AE0002DFA0C48143000F029FA0A48283000F07A
:102AF00025FA08483C3000F021FA0648503000F032
:102B00001DFA0548034941631431816370BD00001B
:102B1000CC0400204C0700202800002030B51349C9
:102B200000E011460A688242FBD34B685C1884427D
:102B300003D140681844486008460D68446823186B
:102B4000AB420DD1094B183B1B689A4206D0526824
:102B5000224442600A681268026002E0036000E0FA
:102B60000260814200D0086030BD00007C0000207F
:102B700010B5044600F014FAA06B20B1002400F058
:102B80002FFA204610BD0124F9E72DE9F04706464B
:102B900089469046434501D21C4600E04446C4B3F2
:102BA0003768B068C51BA54200D32546454507D9FF
:102BB000502080F31188BFF34F8FBFF36F8FFEE774
:102BC0007919814207D9502080F31188BFF34F8FC4
:102BD000BFF36F8FFEE7B0692A46C1194846FDF77B
:102BE00080FBAC420FD9444507D9502080F31188AF
:102BF000BFF34F8FBFF36F8FFEE7621B09EB05003A
:102C0000B169FDF76EFB3819B168814200D8401AEE
:102C100030602046BDE8F0872DE9F8430546089F5F
:102C2000894614461E46002F0FD0D5F80080334643
:102C30003A4669462846FFF7A8FF009AF61BA242CB
:102C400004D9C5F80080002200E0224633464946F8
:102C50002846FFF79AFFBDE8F88300000748416B5C
:102C60000968002905D0416BC968C9684968816253
:102C700070474FF0FF31816270470000280000204C
:102C800009484068401C07D0502080F31188BFF3EA
:102C90004F8FBFF36F8FFEE7502080F31188BFF393
:102CA0004F8FBFF36F8FFEE7840000202DE9F041C6
:102CB000044600F075F994F9455004F1240609E042
:102CC000606A48B1304601F0F3F808B100F03CFA10
:102CD0006D1E6DB2002DF3DC4FF0FF3684F84560B9
:102CE00000F07EF900F05CF994F9445004F110070B
:102CF00009E0206948B1384601F0DAF808B100F07F
:102D000023FA6D1E6DB2002DF3DC84F84460BDE83B
:102D1000F04100F065B92DE9F041044688461546BA
:102D2000002D10D06768A068C61BAE4200D32E46A7
:102D3000B91981420FD9502080F31188BFF34F8F0A
:102D4000BFF36F8FFEE7502080F31188BFF34F8FE2
:102D5000BFF36F8FFEE7A069324638444146FDF766
:102D6000C0FAB54210D9A068AA1B824207D95020E8
:102D700080F31188BFF34F8FBFF36F8FFEE708EB2F
:102D80000601A069FDF7ADFA7819A168814200D863
:102D9000401A60602846BDE8F0817FB50546089876
:102DA0000E46002B0BD0297FC9070AD083420FD3D0
:102DB0000124042202A92846FFF7ADFF09E0002400
:102DC00007E00124029A9A4200D21346029300E0DF
:102DD000002434B131462846029AFFF79CFF04B024
:102DE00070BD0020FBE700002DE9F04105460026FC
:102DF00000F060FA324F386808B9FFF7B1FD786922
:102E000005424DD18DB1083568070ED005F0070099
:102E1000C0F108000544680707D0502080F31188EE
:102E2000BFF34F8FBFF36F8FFEE7CDB37868854256
:102E300036D8234918310846046801E02146044683
:102E40006068A84202D220680028F7D1386884421E
:102E500026D00E680836206808606068411B10297B
:102E60000ED96019420707D0502080F31188BFF3B4
:102E70004F8FBFF36F8FFEE741606560FFF74EFE37
:102E800061687868401A7860BA68904200D2B86089
:102E900078690143616000202060F868401CF86098
:102EA00001F044F8700707D0502080F31188BFF379
:102EB0004F8FBFF36F8FFEE73046BDE8F081000013
:102EC0006400002004490868002803D00868826D67
:102ED000521C8265086870472800002024384FF093
:102EE0008073036221F00101C16104498161426084
:102EF0006FF0020140F8201970470000812C000893
:102F00000169D0E901329A60D0E901235A604A6828
:102F1000824201D182684A60002202610868401E34
:102F20000860086870470000034B036003F1640009
:102F30000860802010607047A000002000F10801A8
:102F400041604FF0FF328260C16001610021016089
:102F5000704700210161704730B50C68621C02D0D7
:102F600000F1080202E0026904E01A4653681D6895
:102F7000A542FAD953684B6099608A605160086134
:102F80000168491C016030BD42684A6093688B60EB
:102F900093685960916008610168491C016070473D
:102FA000502080F31188BFF34F8FBFF36F8F0A4912
:102FB0004868401C486001280CD10848006810F09F
:102FC000FF0F07D0502080F31188BFF34F8FBFF35E
:102FD0006F8FFEE7704700008400002004ED00E0E2
:102FE00009494868002806D0401E4860002801D1E1
:102FF00080F311887047502080F31188BFF34F8F02
:10300000BFF36F8FFEE700008400002070B500283A
:103010002AD008380446154D60686969084207D10E
:10302000502080F31188BFF34F8FBFF36F8FFEE7FF
:1030300022683AB1502080F31188BFF34F8FBFF35D
:103040006F8FFEE78843606000F034F9606869685C
:10305000084468602046FFF761FD2869401C28612C
:10306000BDE8704000F062BF70BD00006400002049
:103070004FF0E02000210161816105494FF47A722F
:103080000968B1FBF2F1491E4161072101617047F6
:103090002400002010B5FDF7DDF8114910280ED3EB
:1030A00000F1E02090F8F0030A78904207D2502017
:1030B00080F31188BFF34F8FBFF36F8FFEE709488E
:1030C0000068896800F4E060884207D9502080F3E6
:1030D0001188BFF34F8FBFF36F8FFEE710BD000065
:1030E000840000200CED00E010B502460020002A0C
:1030F00012D00F48006B38B1502080F31188BFF315
:103100004F8FBFF36F8FFEE700F0D4F80021104619
:10311000FFF758FB00F00AFF002807D105494FF0E0
:1031200080500860BFF34F8FBFF36F8F10BD00005A
:103130002800002004ED00E002490A6A0260C96824
:10314000416070472800002001490120C861704794
:103150002800002010B50C4600280AD0094909684B
:103160001831FFF7F9FE2046BDE810400121FFF7B6
:1031700029BB502080F31188BFF34F8FBFF36F8FAF
:10318000FEE700002800002070B50B46044600282A
:1031900047D0A26DA2B1616D994200D21946E06A92
:1031A00088423ED0012A3CD11E4D2A6894420FD15C
:1031B000502080F31188BFF34F8FBFF36F8FFEE76E
:1031C000502080F31188BFF34F8FBFF36F8FFEE75E
:1031D000E162A269002A02DBC1F12001A161124E65
:1031E00000EB8000616906EB8000814219D1201D4F
:1031F000FFF786FE012130B994F82C2001FA02F085
:103200002A6982432A61E06A2A698140114329615F
:1032100000EB800006EB8000211DBDE87040FFF749
:10322000B3BE70BD28000020CC04002010B586B0CD
:1032300000240594049403AA04A905A8FFF774FECA
:10324000DDE90410CDE900410290002315A11748E3
:10325000039A00F0D9FB1649C86208B1012000E0CA
:103260000020012809D0401C19D1502080F311887A
:10327000BFF34F8FBFF36F8FFEE7502080F31188AD
:10328000BFF34F8FBFF36F8F4FF0FF308862012085
:103290004861CC6006B0BDE8104000F043B806B00D
:1032A00010BD000049444C4500000000AD29000855
:1032B000280000200248016B491C01637047000090
:1032C00028000020154A106B002802D00120D06190
:1032D00070470020D0611069B0FA80F0C0F11F0083
:1032E0000F4900EB800051F8203073B101EB8000F2
:1032F00041684968416000F10803994201D1496879
:1033000041604068C06810607047502080F31188A9
:10331000BFF34F8FBFF36F8FFEE700002800002040
:10332000CC0400201CB537480168374A914207D1C8
:10333000502080F31188BFF34F8FBFF36F8FFEE7EC
:1033400000683149491E884207D1502080F3118816
:10335000BFF34F8FBFF36F8FFEE72C4908780190C2
:10336000FF200870087800909DF800009DF800206C
:1033700000F0F000904207D0502080F31188BFF396
:103380004F8FBFF36F8FFEE79DF80000204C00F0D9
:10339000500020700720A06006E0A068401EA060DA
:1033A0009DF80000400000909DF800000006F4D455
:1033B000A068032807D0502080F31188BFF34F8FF7
:1033C000BFF36F8FFEE74FF44070A0600198087064
:1033D0000C482030016841F470010160016841F03F
:1033E00070410160FFF744FE00206060FCF7FAFEC8
:1033F0000848016841F040410160FCF7DFFE002011
:103400001CBD000000ED00E071C20F4100E400E0CF
:103410008400002034EF00E0F8B505460E4617465C
:10342000002D13D005FB06F04830FFF7DDFC044605
:1034300054B122464832002084F846003B463146CB
:1034400028460094FFF7C6FA2046F8BD502080F3C6
:103450001188BFF34F8FBFF36F8FFEE770B504463F
:103460000D46002C25D0FFF79BFDD4E90F202168E5
:1034700002FB0011A1600021A16321686160E06B83
:103480002268216C401E00FB0121E1604FF0FF30FB
:1034900084F8440084F8450004F110008DB1FFF772
:1034A0004DFD04F12400FFF749FDFFF799FD0120D0
:1034B00070BD502080F31188BFF34F8FBFF36F8F23
:1034C000FEE721690029F0D000F0F2FC0028ECD0E2
:1034D00004494FF080500860BFF34F8FBFF36F8FE8
:1034E000E3E7000004ED00E070B504460E46002C52
:1034F00009D0206C78B1502080F31188BFF34F8F32
:10350000BFF36F8FFEE7502080F31188BFF34F8F1A
:10351000BFF36F8FFEE7206848B9A06838B150202C
:1035200080F31188BFF34F8FBFF36F8FFEE7FFF774
:10353000B1FD5020EFF3118580F31188BFF34F8F59
:10354000BFF36F8FA26BE06B904218D994F94500DE
:10355000521CA263411C04D0401C84F84500012089
:103560000EE0606A0028FAD004F1240000F0A0FC0C
:103570000028F4D0002EF2D001203060EFE70020C8
:1035800085F3118870BD00002DE9F34383B0044634
:103590000025A946002C09D0206C78B1502080F37A
:1035A0001188BFF34F8FBFF36F8FFEE7502080F37A
:1035B0001188BFF34F8FBFF36F8FFEE700F058FB0A
:1035C00048B9049838B1502080F31188BFF34F8F69
:1035D000BFF36F8FFEE700264FF08057DFF82081A2
:1035E000FFF7DEFCA06BC8B1401EA063206810B9D5
:1035F000FFF768FCA060206950B104F1100000F0F2
:1036000057FC28B1C8F80070BFF34F8FBFF36F8F1E
:10361000FFF7E6FC012005B0BDE8F083049808B18F
:103620007DB112E0B9F1000F07D0502080F311886E
:10363000BFF34F8FBFF36F8FFEE7FFF7D1FC002082
:10364000E9E701A8FFF778FD0125FFF7C9FCFFF7BF
:1036500031FEFFF7A5FC94F94400401C01D184F829
:10366000446094F94500401C01D184F84560FFF79F
:10367000B7FC04A901A800F057F9C8B12046FFF72C
:1036800015FB00F053FC2046FFF772FA0028A7D084
:10369000B9F1000F0AD0FFF783FC2046FFF756F977
:1036A0000146A068FFF770FDFFF79AFC0020B2E723
:1036B0002046FFF75DFAE8B1206838B9FFF770FCE3
:1036C000A06800F0ADFB8146FFF78AFC04F12400FE
:1036D0000499FFF73FFD2046FFF7E8FA00F026FCCB
:1036E00000287FF47DAFC8F80070BFF34F8FBFF3A1
:1036F0006F8F75E72046FFF7D9FA00F017FC6FE7E8
:1037000004ED00E0F8B50546069C1E46002E0BD0E1
:10371000200011D0A94217D9502080F31188BFF39F
:103720004F8FBFF36F8FFEE7502080F31188BFF3F8
:103730004F8FBFF36F8FFEE7502080F31188BFF3E8
:103740004F8FBFF36F8FFEE701B901210AB103204C
:1037500000E00220042D07D8502080F31188BFF329
:103760004F8FBFF36F8FFEE7202200920B46009031
:103770002A4631462046FFF739F9207F40F0020102
:1037800021772046F8BD2DE9F84F04468946934637
:103790009A460027B9F1000F05D064B1207FC00719
:1037A00011D0042510E0502080F31188BFF34F8F13
:1037B000BFF36F8FFEE7502080F31188BFF34F8F68
:1037C000BFF36F8FFEE700254FF00008BAF1000F3E
:1037D00028D0FFF7E5FB2046FFF770F80646AE421B
:1037E0000FD8002000F0BAFA206938B1502080F3D9
:1037F0001188BFF34F8FBFF36F8FFEE700F032FAEF
:103800002061FFF7EDFBAE4210D80022534611466F
:10381000104600F0BDFAC4F810802046FFF74EF8BD
:10382000064603E02046FFF749F80646AE4217D9A0
:1038300033465A46494620460095FFF7EDF90746BC
:1038400038000DD0FFF736FD606938B1606900239C
:103850001A46194600F006F9C4F8148000F066FB19
:103860003846BDE8F88F2DE9F843044688461646E9
:103870001F463546B8F1000F31D07CB3207FC0071A
:1038800000D02D1D204600F03AF80346324641464E
:1038900020460095FFF781FA064630001BD02046EF
:1038A000FFF70CF8E168884215D35020EFF311853B
:1038B00080F31188BFF34F8FBFF36F8F206940B142
:1038C0000097206900231A46194600F03FF90020AE
:1038D000206185F311883046BDE8F88307E0502069
:1038E00080F31188BFF34F8FBFF36F8FFEE7502037
:1038F00080F31188BFF34F8FBFF36F8FFEE700286F
:1039000009D0026881680A444068101A401E81424A
:1039100000D8401A7047502080F31188BFF34F8FB2
:10392000BFF36F8FFEE700002DE9F04105460C461E
:10393000002D11D0C4B1FFF733FB194EF0686B684E
:10394000C11A2268571C17D02F68366AB74215D0A3
:10395000834213D801241DE0502080F31188BFF367
:103960004F8FBFF36F8FFEE7502080F31188BFF3B6
:103970004F8FBFF36F8FFEE700240BE08A4206D91A
:10398000501A20602846FFF7D7FB002402E00020F1
:1039900020600124FFF724FB2046BDE8F0810000F1
:1039A000280000202DE9FF5F8146DDE90E788A4678
:1039B00016469B46B000FFF717FA054628000AD0C6
:1039C0006420FFF711FA04460CB1256304E0284691
:1039D000FFF71CFB00E000249CB1002084F861008C
:1039E000CDE90240CDE900785B4632465146484673
:1039F000FFF71EF82046FEF71DFF012004B0BDE8CA
:103A0000F09F4FF0FF30F9E7F0B585B00746DDE9EC
:103A10000A600C9C002815D0E4B16425039520634E
:103A2000022084F86100002004ADCDE90240CDE918
:103A300000653846FEF7FCFF2046FEF7FBFE0498C3
:103A400005B0F0BD502080F31188BFF34F8FBFF356
:103A50006F8FFEE7502080F31188BFF34F8FBFF3C5
:103A60006F8FFEE72DE9F0410D4690461F46012677
:103A7000002812D00446FFF793FA0FB1E06D3860CA
:103A800094F86000022184F86010B8F1050F1CD290
:103A9000DFE808F0260B0F131500502080F3118883
:103AA000BFF34F8FBFF36F8FFEE7E16D2943E165F1
:103AB00016E0E16D491CE16512E0E56510E00228C1
:103AC00001D0E5650CE000260AE0E16D491C07D055
:103AD000502080F31188BFF34F8FBFF36F8FFEE745
:103AE000012828D1201DFFF70BFA154DE06A0121AE
:103AF0002A69814011432961124900EB800001EBE2
:103B00008000211DFFF740FAA06A38B1502080F3F1
:103B10001188BFF34F8FBFF36F8FFEE7E06A29680C
:103B2000C96A884207D908494FF080500860BFF33E
:103B30004F8FBFF36F8FFFF753FA3046BDE8F08128
:103B400028000020CC04002004ED00E02DE9F0471F
:103B50000446DDF820800D4691469A460127002C48
:103B60001DD0FFF797FA5020EFF3118680F31188EC
:103B7000BFF34F8FBFF36F8FBAF1000F02D0E06D2C
:103B8000CAF8000094F86000022184F86010B9F1CE
:103B9000050F1CD2DFE809F0260B0F13150050208B
:103BA00080F31188BFF34F8FBFF36F8FFEE7E16D96
:103BB0002943E16516E0E16D491CE16512E0E56528
:103BC00010E0022801D0E5650CE000270AE0E16D75
:103BD000491C07D0502080F31188BFF34F8FBFF3EB
:103BE0006F8FFEE701281FD1A06A38B1502080F303
:103BF0001188BFF34F8FBFF36F8FFEE7164D286B11
:103C00004FF00109A8B104F118011448FFF7BCF9FD
:103C1000E06A2968C96A884206D9B8F1000F01D064
:103C2000C8F80090C5F81C9086F311883846BDE8A6
:103C3000F087201DFFF764F9E06A2A6909FA00F1AC
:103C400011432961064900EB800001EB8000211D32
:103C5000FFF79AF9DCE70000280000207407002035
:103C6000CC040020014800687047000028000020B4
:103C700005484169002903D0006B18B10020704746
:103C80000120704702207047280000202DE9F041F4
:103C90000026304F386B002805D0B869401CB86149
:103CA0003046BDE8F081FD686D1CFD609DB9786B04
:103CB000006838B1502080F31188BFF34F8FBFF3F5
:103CC0006F8FFEE7786BB96B7963B863386A401C15
:103CD0003862FEF7C3FFB86ADFF87C8085420DD3F7
:103CE000786B006838B1786BC068C46860688542DA
:103CF00012D2B86202E04FF0FF30B8623868C06A92
:103D000000EB800058F82000012800D90126F8694E
:103D10000028C5D00126C3E7201DFFF7F1F8A06AEF
:103D200018B104F11800FFF7EBF8E06A01213A69D5
:103D300081401143396100EB800008EB8000211DB8
:103D4000FFF722F9E06A3968C96A8842C8D30126B8
:103D5000C6E7000028000020CC04002010B5002891
:103D60000BD00446FFF71CF994F86000022807D036
:103D70000024FFF735F9204610BD04480468F1E738
:103D8000002084F860000124F3E7000028000020F0
:103D90002DE9F04781460F4616469846FFF700F991
:103DA0001D4D286890F86000022817D02C68E06D3F
:103DB00020EA0900E0652968012081F86000B8F177
:103DC000000F0BD001214046FEF7FCFC13494FF0D9
:103DD00080500860BFF34F8FBFF36F8FFFF700F97C
:103DE000FFF7DEF816B12868C06D3060286890F8DB
:103DF0006000022801D0002404E02868C16DB943A6
:103E0000C16501242968002081F86000FFF7E8F807
:103E10002046BDE8F08700002800002004ED00E007
:103E200070B504460020002C35D01F4DE16A2A6889
:103E3000D26A914230D2A069002804DB2868C06AA7
:103E4000C0F12000A061E06A184E00EB80006169BB
:103E500006EB800081421AD1201DFFF751F80121A5
:103E600030B994F82C002A6901FA00F082432A61E3
:103E70002868C06AE0622A6981401143296100EB29
:103E8000800006EB8000211DFFF77EF802E0286825
:103E9000C06AE062012070BD616D2A68D26A9142F9
:103EA000F9D2012070BD000028000020CC040020C1
:103EB0002DE9F041C068C468002C15D004F1180049
:103EC0000746FFF71DF8164D2A6B0126A2B13946A9
:103ED0001448FFF759F8E06A2968C96A88421DD971
:103EE0000120EE61BDE8F081502080F31188BFF31E
:103EF0004F8FBFF36F8FFEE7201DFFF701F8E06AD9
:103F00002A6906FA00F111432961074900EB800094
:103F100001EB8000211DFFF737F8DCE70020E1E727
:103F20002800002074070020CC0400202DE9F04177
:103F3000002400272D4D286B002807D0FFF730F80C
:103F4000286B401E2863286B40B149E0502080F365
:103F50001188BFF34F8FBFF36F8FFEE7A868E0B300
:103F6000DFF88C8001261DE0D8F80C00C46804F14D
:103F70001800FEF7C5FF201DFEF7C2FFE06A2A69A0
:103F800006FA00F1114329611A4900EB800001EBA8
:103F90008000211DFEF7F8FFE06A2968C96A88429F
:103FA00000D3EE61D8F800000028DDD10CB1FEF797
:103FB00055FEAC6944B1FFF769FE00B1EE61641EC5
:103FC000002CF8D10020A861E86930B101270A4926
:103FD00038070860BFF34F8F00E001E0BFF36F8F39
:103FE000FEF7FEFF3846BDE8F08100002800002003
:103FF00074070020CC04002004ED00E08840000895
:104000001B1E0008000000000000000080000000EF
:104010000000000000000000684000082D2000089B
:10402000FEFF000000000000800000000000000013
:104030000000000078400008D51F0008FFFF0000C6
:10404000000000000001000000000000000000006F
:104050000000000000000000010203040607080938
:1040600000000000010203046E5461736B43414E73
:1040700053656E64000000006E5461736B43414EE3
:10408000526563656976650064656661756C745434
:1040900061736B00B4400008000000209000000035
:1040A0000C24000844410008900000202047000034
:1040B0001C240008000000000000000000000000B8
:1040C00000000000000000000000000001000000EF
:1040D00010000000000000000024F40000000000B8
:1040E00000000000000000000000000000000000D0
:1040F00000000000000000000000000000000000C0
:1041000000000000000000000000000000000000AF
:10411000000000000000000000000000000000009F
:10412000000000000000000000000000000000008F
:10413000000000000000000000000000AAAAAAAAD7
:04414000000000007B
:040000050800018965
:00000001FF
