:020000040800F2
:10000000884600205D020008A71800086D17000848
:10001000A51800088D030008411D0008000000001D
:100020000000000000000000000000009D0100082A
:10003000A903000800000000F9010008E918000801
:1000400077020008770200087702000877020008AC
:10005000770200087702000877020008770200089C
:10006000770200087702000877020008770200088C
:10007000770200087702000877020008770200087C
:10008000770200087702000877020008770200086C
:10009000910300089D03000877020008770200081A
:1000A00077020008B91900087702000877020008F3
:1000B000770200087702000877020008770200083C
:1000C000770200087702000877020008770200082C
:1000D00077020008351D0008770200087702000843
:1000E000770200087702000877020008770200080C
:1000F00077020008770200087702000877020008FC
:1001000077020008770200087702000877020008EB
:1001100077020008770200087702000877020008DB
:1001200077020008770200087702000877020008CB
:1001300077020008770200087702000877020008BB
:1001400077020008770200087702000877020008AB
:10015000770200087702000877020008770200089B
:10016000770200087702000877020008770200088B
:1001700077020008770200087702000800000000FC
:100180007702000877020008DFF80CD000F0ECF8E6
:1001900000480047CD1D0008884600202C4B1968F8
:1001A0000868B0E8F04F80F30988BFF36F8F4FF015
:1001B000000080F3118870470000000008480068C4
:1001C000006880F308884FF0000080F3148862B65E
:1001D00061B6BFF34F8FBFF36F8F00DF00BF00BF6B
:1001E00008ED00E0DFF80C00016841F470010160E7
:1001F000704700BF88ED00E0EFF30980BFF36F8F19
:10020000134B1A681EF0100F08BF20ED108A20E96A
:10021000F04F106009B44FF0500080F31188BFF325
:100220004F8FBFF36F8F02F073F94FF0000080F330
:10023000118809BC19680868B0E8F04F1EF0100F6B
:1002400008BFB0EC108A80F30988BFF36F8F704746
:100250001C000020EFF3058070470000064880472F
:1002600006480047FEE7FEE7FEE7FEE7FEE7FEE79B
:10027000FEE7FEE7FEE7FEE7A9190008890100088E
:100280002DE9F05F0546002092469B4688460646CB
:10029000814640241BE0284641464746224600F05E
:1002A00053F853465A46C01A914110D31146184686
:1002B000224600F03AF82D1A67EB01084F46224615
:1002C0000120002100F031F817EB00094E41201EFB
:1002D000A4F10104DFDC484631462A464346BDE826
:1002E000F09F40EA01039B0703D009E008C9121FF1
:1002F00008C0042AFAD203E011F8013B00F8013BE0
:10030000521EF9D27047D2B201E000F8012B491E0B
:10031000FBD270470022F6E710B513460A460446A2
:100320001946FFF7F0FF204610BD202A04DB203AD3
:1003300000FA02F1002070479140C2F1200320FA38
:1003400003F3194390407047202A04DB203A21FA36
:1003500002F00021704721FA02F3D040C2F12002DE
:100360009140084319467047064C074D06E0E06887
:1003700040F0010394E8070098471034AC42F6D3EC
:10038000FFF706FF0829000828290008FEE70000FB
:10039000014800F00DB80000E8020020014800F01C
:1003A00007B80000E8020020704772B6FEE7704709
:1003B0002DE9F05F0546006800244669D0F80490F6
:1003C0008768D0F80CB0D0F810A0D0F81880F107EA
:1003D00048D0F90714D001218160B80703D5284619
:1003E00000F0BEF90CE0780702D54FF4006407E096
:1003F000380702D54FF4805402E0284600F0AFF9E8
:10040000F80516D529684FF480708860B80503D5C3
:10041000284600F0A7F90CE0780502D544F4005412
:1004200007E0380502D544F4804402E0284600F095
:1004300098F9F80316D529684FF480308860B8031E
:1004400003D5284600F090F90CE0780302D544F477
:10045000004407E0380302D544F4803402E0284623
:1004600000F081F9300707D55FEACB6004D5296831
:10047000102044F40074C86070074FF0080707D5D7
:100480005FEA0B7004D52868C760284600F062F95F
:10049000B00706D52868C068800702D0284600F05B
:1004A0005AF9700607D55FEACA6004D5296810209A
:1004B00044F480640861B00607D55FEA0A7004D589
:1004C00028680761284600F047F9F00606D5286835
:1004D0000069800702D0284600F03FF9B00308D534
:1004E0005FEAC96005D5296810204860284600F0F9
:1004F00035F9F00307D55FEA097004D5286847602D
:10050000284600F032F9300446D55FEA497040D5FC
:10051000F00504D55FEAC87001D044F00104B005CD
:1005200004D55FEA887001D544F00204700504D553
:100530005FEA487001D544F00404300529D518F06D
:10054000700F26D008F07000402815D006DC102867
:1005500009D020280AD0302816D10AE050280ED021
:10056000602811D10EE044F008040DE044F01004BE
:100570000AE044F0200407E044F0400404E044F0C2
:10058000800401E044F480742868816921F07001DE
:100590008161296804204860002C05D0686A2043E6
:1005A00068622846FFF703FFBDE8F09F70B50400BE
:1005B00003D094F8200010B104E0012070BD204663
:1005C00000F082F82068016841F00101016000F04C
:1005D00027FA0546052604E000F022FA401B0A2807
:1005E00011D820684068C007F6D02068016821F063
:1005F0000201016000F014FA05460BE000F010FA69
:10060000401B0A2806D9606A40F40030606284F812
:100610002060D2E7206840688007EFD4207E012860
:10062000206801683DD021F080010160607E0128D2
:100630002068016838D021F040010160A07E0128C7
:100640002068016833D021F020010160E07E01289C
:10065000206801682ED041F010010160207F012840
:100660002068016829D021F008010160607F01281D
:100670002068016824D021F004010160D4E902015E
:100680000843D4E90412114308436168491E084332
:100690002168C86100206062012084F820000020E9
:1006A00070BD41F08001C0E741F04001C5E741F075
:1006B0002001CAE721F01001CFE741F00801D4E79B
:1006C00041F00401D9E7000010B586B004461421BA
:1006D0006846FFF71FFE1C492068884231D11B483D
:1006E0000021026842F000720260006800F00070B1
:1006F000059016481038026842F001020260006856
:1007000000F0010005904FF4C05000900220CDE9A8
:100710000101032003900920049069460C4800F071
:1007200081F800220521142000F012FA142000F0B4
:1007300001FA00220521152000F00AFA152000F028
:10074000F9F906B010BD00000064004040380240D6
:10075000000002407047704770477047704770470D
:100760007047704770477047704770472DE9F041F8
:100770000446876D00F054F9064694F835000025CC
:10078000022806D08020606584F834500120BDE83E
:10079000F0812068016821F016010160206841693C
:1007A00021F080014161206C08B9A06C20B1206863
:1007B000016821F0080101602068016821F0010151
:1007C00001600CE000F02CF9801B052807D92020DF
:1007D0006065032084F8350084F83450D7E720683A
:1007E0000068C007EED194F85C103F208840B860E4
:1007F000012084F8350084F834500020C7E790F8D1
:100800003510022903D08021416501207047052160
:1008100080F835100068016821F0010101600020B6
:10082000704700002DE9F84FDFF8BCA10022012538
:1008300003264FF00F090AF1040BAAF1040E00BFC2
:100840000B6805FA02F42340A34270D10F7907F038
:100850000307012F01D0022F16D187684FEA420803
:1008600006FA08FC27EA0C07D1F80CC00CFA08FCC1
:100870004CEA070CC0F808C04768A7430C79C4F3DA
:10088000001494403C4344600C79E443A4070AD02C
:10089000C4684FEA420C06FA0CF7BC438F6807FAAB
:1008A0000CF72743C7600C7904F00304022C12D123
:1008B000D40800EB840CDCF820405707FF0E09FA3F
:1008C00007F824EA0804D1F8108008FA07F848EA83
:1008D0000408CCF8208004684FEA420C06FA0CF7B2
:1008E000BC430F7907F0030707FA0CF727430760AB
:1008F0004C6814F4403F70D03C4C276847F4804764
:100900002760246822F0030704F480440094384CE4
:1009100007EB040CDCF8084897074FEA177809FA48
:1009200008F7BC43334FB84202D1002724E054E01B
:10093000314FB84201D101271EE0304FB84201D1FA
:10094000022719E02E4FB84201D1032714E02D4FA2
:10095000B84201D104270FE02B4FB84201D105273F
:100960000AE02A4FB84201D1062705E0284FB842D5
:1009700001D1072700E0082707FA08F72743CCF83A
:100980000878DAF800405746D1F804C09C435FEA83
:10099000CC2C00D51C433C60DBF800405F46D1F80E
:1009A00004C09C435FEA8C2C00D51C433C60DEF8FD
:1009B00000407746D1F804C09C435FEA8C3C00D5E8
:1009C0001C433C60084F083F3C68D1F804C09C437E
:1009D0005FEACC3C00D51C433C60521C102AFFF45B
:1009E0002FAFBDE8F88F0000083C014044380240BA
:1009F00000300140000002400004024000080240B4
:100A0000000C024000100240001402400018024096
:100A1000001C02400AB1816170470904FBE7000035
:100A200001488068704700000C000020024881687F
:100A300002781144816070470C0000200B4810B50B
:100A4000016841F400710160016841F48061016056
:100A5000016841F480710160032000F099F80F20D3
:100A600000F006F800F04AF8002010BD003C0240FB
:100A700030B505461C4887B00024016841F00101EB
:100A80000160006806A900F00100009001A800F0D4
:100A90002BF900F059F915494000B0FBF1F1154868
:100AA000134A491E026040F2E732C0E90324C0E95C
:100AB0000114846100F040FB040012D10D4800F0E5
:100AC00069FB04000DD1192000F034F8102D07D275
:100AD00000222946192000F03BF80748056000E095
:100AE000012407B0204630BD4438024040420F0088
:100AF0000000014058030020100000200C4882B084
:100B0000016841F480410160006800F48040009079
:100B10000748001F016841F0805101600068002211
:100B200000F0805000900F21901E02B000F010B82D
:100B300044380240002809DB00F01F0201219140E7
:100B40004009800000F1E020C0F80011704700006B
:100B5000F0B40E4B1B680C46C3F30223C3F1070528
:100B6000042D00D90425191D072901D2002300E016
:100B7000DB1E012606FA05F1491E214099409E40E0
:100B8000761E16403143F0BC01F0E4B80CED00E0F5
:100B9000064900F0070208684FF6FF03184040EAD4
:100BA0000220034A10430860704700000CED00E08B
:100BB0000000FA052DE9F0470E46050065D0DFF884
:100BC0001481D8F80000F7B200F00700B04207D255
:100BD00088F80070D8F8000000F00700B04254D147
:100BE00028683D4C810712D5400703D5206840F4A2
:100BF000E05020602878000703D5206840F460406A
:100C000020602068A96820F0F00008432060287860
:100C1000C0072DD0304968680839012812D0022851
:100C200013D0032811D00968890700292DDA21681B
:100C300021F0030101432160FFF7F2FE814641F2FA
:100C4000883A0EE009688903EFE709688901ECE753
:100C5000FFF7E6FEA0EB0901514502D90320BDE8EC
:100C6000F0872068696800F00C00B0EB810FEFD1CD
:100C7000D8F80010404601F00701B14207D90770CB
:100C8000006800F00700B04201D00120E7E72878B3
:100C9000400705D52068E96820F4E050084320604B
:100CA0002878000706D52068296920F4604040EACA
:100CB000C100206000F058F82168084AC1F3031110
:100CC000515CC8400649086006480068FFF7D0FE3E
:100CD0000020C4E7003C024008380240D828000841
:100CE00018000020100000200F2202600C4A136838
:100CF00003F003034360136803F0F0038360136899
:100D000003F4E053C36012684FF4E05303EAD202E5
:100D100002610448006800F00700086070470000A6
:100D200008380240003C0240044805490068096850
:100D3000044AC1F38221515CC8407047180000206A
:100D400008380240E8280008044805490068096896
:100D5000044AC1F34231515CC8407047180000207A
:100D600008380240E8280008154810B5006810F05F
:100D70000C02144813D04110042A0FD0082A0ED1B7
:100D80000F4C241F2268236802F03F025B0207D544
:100D90002068C0F38810A0FB010106E0084610BDE2
:100DA0002168C1F38811A1FB00010023FFF768FA55
:100DB0002168C1F30141491C4900B0FBF1F010BDAD
:100DC000083802400024F4002DE9F84F04006ED0EA
:100DD0002078DFF84C93C007A9F104054AD009F147
:100DE00004000168C1F38101012908D00068C0F343
:100DF000810002280AD1D9F80000400206D52868EF
:100E0000800337D560680028E1D033E06068B0F532
:100E1000803F10D0B0F5A02F286810D020F480308B
:100E20002860286820F4802028606068A8B1FFF757
:100E3000F7FD06460DE0286840F48030F4E740F402
:100E400080202860F7E700BFFFF7EAFD801B6428D9
:100E500073D828688003F7D50CE0FFF7E1FD06465C
:100E600005E000BFFFF7DCFD801B6428F0D8286890
:100E70008003F7D42078DFF8AC8280074FF0000AB7
:100E80003ED5A748001D016811F00C0F08D000687E
:100E9000C0F3810002280BD1D9F80000400207D42A
:100EA0002868800716D5E068012800D112E033E1F8
:100EB000E068B8B10120C8F80000FFF7B1FD0646B0
:100EC00005E000BFFFF7ACFD801B0228C0D82868F2
:100ED0008007F7D52868216920F0F80040EAC100B2
:100EE00028600DE0C8F800A0FFF79AFD064604E070
:100EF000FFF796FD801B02281FD828688007F7D4CB
:100F00002078000722D5864F87486169703771B114
:100F100001210160FFF784FD064604E0FFF780FD34
:100F2000801B022809D838688007F7D50EE0C0F882
:100F300000A0FFF775FD064605E082E0FFF770FDB3
:100F4000801B02287DD838688007F7D420784007B6
:100F500068D5DFF8CCB100270BF13C0BDBF80000C3
:100F6000C0000BD4DBF8001041F08051CBF800102A
:100F7000DBF80000012700F0805000906B4E3068D5
:100F8000C00510D4306840F480703060FFF748FD31
:100F9000009005E0FFF744FD0099401A022850D860
:100FA0003068C005F6D55E4EA0686C3601280FD0BB
:100FB0000528306810D020F001003060306820F043
:100FC00004003060A068B8B1FFF72AFD00900FE080
:100FD000306840F00100F4E740F004003060F7E7CB
:100FE000FFF71EFD0099411A41F28830814266D810
:100FF00030688007F4D50EE0FFF712FD009007E09F
:10100000FFF70EFD0099411A41F28830814256D80F
:1010100030688007F4D42FB1DBF8001021F0805144
:10102000CBF80010A069C8B33D49091D0968C1F398
:10103000810102294AD00228504607D0C8F8600032
:1010400000E03CE0FFF7ECFC04463BE04746C8F814
:101050006000FFF7E5FC064605E000BFFFF7E0FC97
:10106000801B02282BD828688001F7D4D4E9070117
:101070000843A16A2E4A490802EB0141626A41EA2B
:101080008211084394F82C1040EA0161C9F800105D
:1010900001203866FFF7C4FC044606E03EE000BFCE
:1010A000FFF7BEFC001B022809D828688001F7D58D
:1010B00034E000BFFFF7B4FC001B022802D9032074
:1010C000BDE8F88F28688001F4D427E00128F7D024
:1010D000D9F80000E26900F4800191421CD1226A33
:1010E00000F03F01914217D147F6C071626A01409A
:1010F000B1EB821F10D1A26A4FF0FF3300F44031F0
:1011000003EB5202B1EB024F06D194F82C1000F021
:101110007060B0EB016F01D00120D1E70020CFE774
:101120000438024000004742800E474200700040F1
:101130000000FFFF7047704710B5040003D094F81B
:101140003D0010B107E0012010BD002084F83C00F4
:10115000204600F01EF8022084F83D00211D206882
:1011600000F030FC012084F8460084F83E0084F84A
:101170003F0084F8400084F8410084F8420084F87D
:10118000430084F8440084F8450084F83D000020C2
:1011900010BD704790F83D10012901D00120704723
:1011A000022180F83D100168CA6842F00102CA605D
:1011B00000681149884214D0B0F1804F11D00F4916
:1011C00088420ED00E4988420BD00E49884208D082
:1011D0000D49884205D00D49884202D00C49884209
:1011E00004D1816801F00701062903D0016841F0AC
:1011F0000101016000207047000001400004004030
:1012000000080040000C0040000401400040014084
:101210000018004070472DE9F04104460068C66898
:1012200005694FF00007A90713D5B10711D5F91EBD
:10123000016101202077206880698007204602D064
:10124000FFF7E8FF04E000F07EF8204600F07CF8AD
:101250002777680716D5700714D521686FF004004A
:101260000861022020772068806910F4407F2046C2
:1012700002D0FFF7CFFF04E000F065F8204600F051
:1012800063F82777280715D5300713D521686FF045
:1012900008000861042020772068C0698007204684
:1012A00002D0FFF7B7FF04E000F04DF8204600F051
:1012B0004BF82777E80616D5F00614D521686FF0AD
:1012C00010000861082020772068C06910F4407F72
:1012D000204602D0FFF79EFF04E000F034F82046DD
:1012E00000F032F82777E80708D0F00706D0216829
:1012F0006FF001000861204600F028F8280608D5A4
:10130000300606D521686FF0800008612046FFF79F
:1013100011FF680608D5700606D521686FF04000F9
:101320000861204600F01CF8A8060AD5B00608D5CA
:1013300021686FF0200008612046BDE8F041FFF70A
:10134000FABEBDE8F08170477047000000680349AD
:10135000884201D1FFF76ABB7047000000000140DE
:101360007047704770470000F8B501680446086888
:10137000CA684B6910F00F0F4FF0000559D003F009
:10138000010602F49077374365D0C10705D0D10537
:1013900003D5616C41F001016164410705D5D907AE
:1013A00003D0616C41F002016164810705D5D90762
:1013B00003D0616C41F004016164010707D502F0BC
:1013C0002001314303D0616C41F008016164616C1C
:1013D00000293AD0800604D5900602D5204600F0B8
:1013E00087FB20684069616CC0F38010090700D456
:1013F00060B3204600F055FB20684069400621D5C7
:101400002068143050E8001F21F0400140E800122D
:10141000002AF5D1E06BA8B172490165E06BFFF7D6
:10142000EEF9002811D0E06B016D01B0BDE8F0408D
:10143000084783060FD593060DD52046BDE8F84032
:1014400000F056BB2046FFF78DFFF8BD2046FFF7A2
:1014500089FF6564F8BD266B2023012E7ED1C60668
:101460007CD5D6067AD508684868009048694FF060
:10147000020640064DD5E26B106840684FF4807755
:101480000004000C3AD0A18D814237D9E085D069A3
:10149000B8422DD020680C3050E8001F21F4807134
:1014A00040E80012002AF5D12068143050E8001FEF
:1014B00021F0010140E80012002AF5D12068143023
:1014C00050E8001F21F0400140E80012002AF5D149
:1014D00084F84230256320680C3050E8001F21F06A
:1014E000100140E80012002AF5D1E06BFFF73EF949
:1014F0006663A08DE18D401A81B206E0A18D814224
:10150000A8D1D069B842A5D166632046FFF729FF6C
:10151000F8BDA08DE18D401A81B2E08D0028F7D092
:101520000029F5D020680C3050E8002F22F490728A
:1015300040E80027002FF5D12068143050E8002F34
:1015400022F0010240E80027002FF5D184F8423054
:10155000256320680C3050E8002F00E006E022F000
:10156000100240E80023002BF3D1CDE705062BD570
:10157000150629D594F841002128C9D1A068B0F5F5
:10158000805F01D12069B0B1206A411C21622168CD
:1015900000784860E08C401E0004000CE084B7D165
:1015A0002068C16821F08001C1602068C16841F0F5
:1015B0004001C160F8BD206A0088C0F3080048609F
:1015C000206A801C2062E5E74006F3D55006F1D57D
:1015D000CA68204622F04002CA6084F8413000F018
:1015E000C4F8F8BD951A000870B5040004D094F84A
:1015F0004100002510B106E0012070BD84F8405084
:10160000204600F023F8242084F841002068C168B7
:1016100021F40051C160204600F0CCFA2068016935
:1016200021F4904101612068416921F02A01416162
:101630002068C16841F40051C1606564202084F8CD
:10164000410084F842006563002070BD10B586B08B
:10165000044614216846FEF75DFE1849206888425A
:1016600029D117480021026842F010020260006888
:1016700000F01000059012481438026842F0010290
:101680000260006800F0010005904FF4C060009017
:101690000220CDE901010320039007200490694650
:1016A0000848FFF7BFF8002205212520FFF750FA70
:1016B0002520FFF73FFA06B010BD000000100140E2
:1016C000443802400000024070472DE9F8430446C8
:1016D00090F84100984616460D46202802D0022078
:1016E000BDE8F88385B17EB100206064212084F8D4
:1016F0004100FFF795F9A6848146E684A06820277B
:10170000B0F5805F02D003E00120E9E7206910B165
:101710002E4600250EE000260CE08021204600F039
:10172000CFFAA8B9C6B116F8010B21684860E08C61
:10173000401EE084E08C4B464FF00002CDF8008064
:101740000028EAD14FF04001204600F0B9FA40B13C
:1017500084F841700320C3E735F8020BC0F308009A
:10176000E3E784F841700020BAE77047FEE7000025
:101770000F4810B50D490160102141608906816054
:1017800000214FF48032C0E9031212014261017658
:1017900041768176C17601774177FEF707FF002811
:1017A00003D0BDE81040FEF700BE10BD006400404D
:1017B000E802002010B58EB01C220B496846FEF7E7
:1017C00090FD0021684600F022FB084C06491C22CF
:1017D00020601C3107A8FEF784FD002107A800F057
:1017E00016FB60600EB010BDA028000800000020AD
:1017F00030B587B014216846FEF78CFD19480024E7
:10180000016841F004010160016801F004010591E3
:10181000016841F080010160016801F080010591DB
:10182000016841F002010160016801F002010591C7
:10183000016841F00101016000680B4D00F00100FA
:101840000590002204212846FFF7E4F804200090C8
:101850000120CDE90104694628460394FEF7E2FF22
:1018600007B030BD30380240000402400C4810B5CB
:101870000A4901604FF4E1314160002181600C228E
:10188000C160C0E904128161C161FFF7ADFE0028AB
:1018900003D0BDE81040FEF788BD10BD0010014028
:1018A00010030020FEE7FEE7012000F0A4FAFBE7AA
:1018B0000A4C4FF4FA750AA000F044FA206840F090
:1018C00004002060284600F0BFFD206820F00400DE
:1018D0002060284600F0B8FDEDE700001404024047
:1018E000E4BBBBE58AA1310010B5502080F311881C
:1018F000BFF34F8FBFF36F8F00F00AFF18B1044999
:101900004FF080500860002080F3118810BD000067
:1019100004ED00E030B593B030216846FEF7FAFCE4
:1019200014210CA8FEF7F6FC1D480025016841F0C3
:1019300080510160006800F08050119019480168E2
:1019400041F4804101600068022400F4804011905D
:1019500001200090000401908001CDE9064008AA12
:101960000420A82182E813000B906846FFF72CFAA8
:1019700008B172B6FEE70CA90F2081E831004FF4E0
:10198000A0500F904FF48050109005210CA8FFF745
:1019900011F9002801D072B6FEE713B030BD000087
:1019A00040380240007000400248016841F4700174
:1019B0000160704788ED00E00148FFF72CBC000093
:1019C00058030020F0B50268274B284D284E294FB8
:1019D000294C4FF0804C984209D0604507D0A8426E
:1019E00005D0B04203D0B84201D0A04204D122F0C9
:1019F000700E4A6842EA0E0298421BD0604519D028
:101A0000A84217D0B04215D0B84213D0A04211D08E
:101A10001A4DA8420ED01A4DA8420BD0194DA8421B
:101A200008D0194DA84205D0184DA84202D0184D33
:101A3000A84203D122F44075CA682A434D6922F0B6
:101A400080022A438D68C5620D688562984201D084
:101A5000A04201D109690163016841F004010160FC
:101A6000012141610260F0BD00000140000400401E
:101A700000080040000C004000040140004001400C
:101A8000004401400048014000180040001C004094
:101A90000020004010B5806B0021C185FFF762FC7B
:101AA00010BD01680C3151E8002F22F4907241E81A
:101AB0000023002BF5D10168143151E8002F22F0EA
:101AC000010241E80023002BF5D1016B012909D166
:101AD00001680C3151E8002F22F0100241E8002388
:101AE000002BF5D1202180F84210002101637047BE
:101AF00008B590F84210222901D0022008BD826862
:101B00004FF480539A4201D1016921B1816A9A420E
:101B10001BD04AB10AE00268816A5268C2F3080227
:101B20000A80816A891C08E0026972B10268526801
:101B300002F07F020A70816A491C8162C18D491ED0
:101B40000904090CC18503D01BE002685268F1E763
:101B50000168CA6822F02002CA600168CA6822F4DB
:101B60008072CA6001684A6922F001024A6120213C
:101B700080F8421000214163026B012A03D0FFF775
:101B8000A3FD002008BD016301680C3151E8002F5E
:101B900022F0100241E80023002BF5D101680A6809
:101BA000D20602D50A6849680091818DFFF7D9FBFA
:101BB000E7E7000070B5044600680169E26821F4B7
:101BC0004051114301612169A068E26908436169DC
:101BD000114308432168CA6849F20C639A430243DF
:101BE000CA6020684169A26921F4407111434161D2
:101BF00031492068884202D03049884202D1FFF73B
:101C0000A3F801E0FFF790F8E269002319216425A9
:101C10003226B2F5004F626828D0A0FB0101930F75
:101C20009200FEF72DFB0146B0FBF5F06FF01802B5
:101C3000504301EB800006EB0010B0FBF5F000F024
:101C4000F002B1FBF5F002EB0012B1FBF5F06FF022
:101C50001803584301EB800006EB0010B0FBF5F0D1
:101C600000F00F0021681044886070BDA0FB0101E6
:101C700092185B41FEF704FB0146B0FBF5F0020150
:101C8000B1FBF5F06FF01803584301EB800006EB51
:101C9000C000B0FBF5F000F0F80002EB4002B1FB31
:101CA000F5F0584301EB800006EBC000B0FBF5F007
:101CB00000F00700D6E700000010014000140140CA
:101CC0002DE9F843984617460D460446089E24E041
:101CD000701C22D0FEF7A4FEA0EB0800B0421AD878
:101CE000CEB12068C168490717D5802D15D0402D89
:101CF00013D00168C94309070FD401680025406863
:101D000000902046FFF7CDFE0820606484F8405024
:101D10000120BDE8F8830320FBE72068006835EA6E
:101D2000000004D00020B842D2D00020F1E701200A
:101D3000F9E700000148FFF717BB0000100300207F
:101D4000FEE70000014A024900F023B8B51D000873
:101D5000080000200907090E002804DB00F1E0203C
:101D600080F80014704700F00F0000F1E02080F8C8
:101D7000141D704702E008C8121F08C1002AFAD1DA
:101D800070477047002001E001C1121F002AFBD1FB
:101D900070472DE9F04116460F460446002503E042
:101DA0003946B047641C6D1C20780028F8D12846BD
:101DB000BDE8F08113B54FF47A73012269460248F9
:101DC000FFF783FC00981CBD10030020FEF736FED1
:101DD000FFF7A0FDFFF70CFDFFF748FDFFF7C8FC7C
:101DE000FFF7E8FC00F00EF8FEE70146002084292A
:101DF00000D0C81C704710B500B9012000F024FBCA
:101E0000002010BD10B500F045FB002010BD7FB5CF
:101E10000D4604464169B0F9080081B1A16971B16C
:101E2000FFF7E3FFD4E905128DE80700D4E90010BD
:101E30002B46226900F041FC039004B070BDFFF70F
:101E4000D4FF03A9CDE90001208A2B4682B2D4E950
:101E5000001000F005FC012801D00020EDE70398F8
:101E6000EBE700002DE9F041184C0F460546E66807
:101E70002068001D00F020FA38B9206890F82C1076
:101E800001208840216981432161681C07D137B155
:101E90002168BDE8F0410E48091D00F051BA2068E4
:101EA0003544B5424560216805D2A06BBDE8F041DC
:101EB000091D00F02DBA606B091D00F029FAA06A17
:101EC000854200D2A562BDE8F08100001C00002020
:101ED000700600202DE9F041054600F03DFA2D4C3A
:101EE000A068401CA06020682B4F10B1606930B31F
:101EF0002BE02560A068012827D1002606EB86008C
:101F000007EB800000F0F6F9761C202EF6D323486C
:101F100000F0F0F92148143000F0ECF91F482830A7
:101F200000F0E8F91D483C3000F0E4F91B4850305F
:101F300000F0E0F9194860631430A06305E0206800
:101F4000E96AC06A884200D82560606A401C606205
:101F5000E96A0120226988401043206101EB810079
:101F600007EB8000291D00F0EBF900F015FA60691D
:101F700000280CD02068E96AC06A884207D2084964
:101F80004FF080500860BFF34F8FBFF36F8FBDE8F5
:101F9000F08100001C000020A0030020200600208B
:101FA00004ED00E010B5044690F8610058B1012836
:101FB0000CD002280FD0502080F31188BFF34F8F30
:101FC000BFF36F8FFEE7206B00F0FAF92046BDE803
:101FD000104000F0F5B910BD10484FF470514207A1
:101FE00006D0C01D0D4920F00700411AC1F57051FF
:101FF0000B4A00230144C2E900030839183A21F0D2
:10200000070111604B600B600B1AC0E9001393606D
:102010004FF000405360506170470000840600207C
:1020200070000020144E154CA6F52F774FF0805805
:10203000DFF84C9012E000BF00F08EF9F068C56840
:10204000281D00F039F9A068401EA0606068401E9D
:10205000606000F0A1F92846FFF7A4FF606800283F
:10206000EAD138680128F9D9C9F80080BFF34F8F49
:10207000BFF36F8FF2E700005C0600201C00002019
:1020800004ED00E02DE9F0479A46DDE90984814638
:102090006FF00303206B03EB82021044089E20F0D4
:1020A0000707780707D0502080F31188BFF34F8FC0
:1020B000BFF36F8FFEE7002561B1002023180A5C93
:1020C00083F834200A5C12B1401C2028F6D384F82F
:1020D000535001E084F83450202E00D31F26E662CE
:1020E000C4E91565201D00F010F904F1180000F096
:1020F0000CF92461C6F120006462A061E56584F8F2
:10210000605052464946384600F0C0F82060B8F1A9
:10211000000F01D0C8F80040BDE8F08730B5114984
:1021200000E011460A688242FBD34B685C18844287
:1021300003D1406818444860084643681C1894421C
:1021400009D1084C183C2468A24209D052681A44AC
:1021500042600A6812680260814200D0086030BDA7
:102160000460F9E7700000200648416B096829B156
:10217000416BC968C9684968816270474FF0FF3197
:10218000FAE700001C00002008484068401C4FF09F
:10219000500080F3118804D0BFF34F8FBFF36F8FCF
:1021A000FEE7BFF34F8FBFF36F8FFEE7780000208D
:1021B0002DE9F0410546002700F0A2F9324E3068C3
:1021C00008B9FFF709FF706905424ED1C5B308355C
:1021D00068070ED005F00700C0F108000544680745
:1021E00007D0502080F31188BFF34F8FBFF36F8F5C
:1021F000FEE72DB37068854237D823481830014672
:102200000C6801E020460C466168A94202D22168B0
:102210000029F7D131688C4227D007682168016016
:1022200060680837411B10290FD96019420708D090
:10223000502080F31188BFF34F8FBFF36F8FFEE7FD
:1022400013E041606560FFF769FF61687068401ADC
:102250007060B268904200D2B060706901430020A3
:10226000C4E90001F068401CF06000F0B7FA78079C
:1022700007D0502080F31188BFF34F8FBFF36F8FCB
:10228000FEE73846BDE8F0815800002010B5031F76
:102290004FF080741C601B1F21F001011960191F91
:1022A000044B0B6014390A60091F6FF002024438B6
:1022B0000A6010BD89210008D0E9013201699A60E5
:1022C000D0E901235A604A68824201D182684A609B
:1022D000002202610868401E08600868704700001C
:1022E000034B036003F164000860802010607047B6
:1022F0008400002000F108014FF0FF32C0E9011214
:10230000C1600161002101607047002101617047D7
:1023100030B50B685A1C02D000F1080202E00269D5
:1023200004E02246546825689D42FAD953684B6000
:1023300099608A60516008610168491C016030BD84
:1023400042684A6093688B60936859609160086145
:102350000168491C01607047502080F31188BFF369
:102360004F8FBFF36F8F0A494868401C48600128AF
:102370000CD10848006810F0FF0F07D0502080F300
:102380001188BFF34F8FBFF36F8FFEE770470000D8
:102390007800002004ED00E00849486828B1401E9C
:1023A000486001D180F311887047502080F3118874
:1023B000BFF34F8FBFF36F8FFEE700007800002060
:1023C00070B500282AD0164DA0F10804606869692C
:1023D000084207D1502080F31188BFF34F8FBFF31D
:1023E0006F8FFEE722683AB1502080F31188BFF367
:1023F0004F8FBFF36F8FFEE78843606000F080F877
:1024000060686968084468602046FFF787FE2869AD
:10241000401C2861BDE8704000F0E0B970BD0000CC
:10242000580000204FF0E020002101618161054942
:102430004FF47A720968B1FBF2F1491E416107213C
:10244000016170471800002010B5020014D00F4839
:10245000006B38B1502080F31188BFF34F8FBFF36A
:102460006F8FFEE700F04CF800211046FFF7FAFCF2
:1024700000F0B4F9002807D105494FF080500860FA
:10248000BFF34F8FBFF36F8F10BD00001C00002003
:1024900004ED00E010B586B00024039405AA04A959
:1024A00003A80494FFF71CFFDDE903010094CDE9C4
:1024B000011000230EA11048059A00F0FEF80F4904
:1024C0000028C86211D0502080F31188BFF34F8FCD
:1024D000BFF36F8F4FF0FF30886201204861CC60FE
:1024E00006B0BDE8104000F041B806B010BD0000D5
:1024F00049444C4500000000252000081C00002035
:102500000248016B491C0163704700001C00002059
:102510001448016B11B10121C16170470021C161F3
:102520000169B1FA81F1C1F11F0101EB81020E498C
:1025300051F822306BB101EB820101F108034A68C6
:1025400052684A609A4201D152684A60D16801607B
:102550007047502080F31188BFF34F8FBFF36F8F08
:10256000FEE700001C000020A00300201CB5374837
:102570000168374A914207D1502080F31188BFF398
:102580004F8FBFF36F8FFEE700683149491E8842C5
:1025900007D1502080F31188BFF34F8FBFF36F8FA7
:1025A000FEE72C4908780190FF20087008788DF824
:1025B00000009DF800009DF8002000F0F00090421F
:1025C00007D0502080F31188BFF34F8FBFF36F8F78
:1025D000FEE79DF80000204C00F05000207007201E
:1025E000A06005E09DF8002052008DF80020401EFC
:1025F0009DF800201206F5D4A060032807D05020D3
:1026000080F31188BFF34F8FBFF36F8FFEE74FF456
:102610004070A060019808700C482030016841F4B7
:1026200070010160016841F070410160FFF7FAFE3E
:1026300000206060FDF7D6FD0848016841F0404188
:102640000160FDF7BBFD00201CBD000000ED00E0B7
:1026500071C20F4100E400E07800002034EF00E098
:102660002DE9FF5F8346DDE90E87994616468A46C7
:102670009000FFF79DFD05001CD06420FFF798FD3A
:10268000040014D00020256384F86100CDE90240E5
:10269000CDE900874B46324651465846FFF7F2FCDB
:1026A0002046FFF717FC012004B0BDE8F09F284644
:1026B000FFF786FE4FF0FF30F6E7F0B585B0DDE9B5
:1026C0000B640A9DA6B1DCB164270097266302263D
:1026D00084F86160002604AFCDE90246CDE90057D9
:1026E000FFF7D0FC2046FFF7F5FB049805B0F0BDDE
:1026F000502080F31188BFF34F8FBFF36F8FFEE739
:10270000502080F31188BFF34F8FBFF36F8FFEE728
:102710002DE9F0412F4C0026206B28B1A069401C08
:10272000A0613046BDE8F081E5686D1CE56013D11D
:10273000606B006838B1502080F31188BFF34F8F71
:10274000BFF36F8FFEE7606BA16B6163A063206ACC
:10275000401C2062FFF708FDA06ADFF87C808542FC
:1027600009D3606B0068A0B1606BC068C768786807
:10277000854211D2A0622068C06A00EB800158F83F
:102780002100012800D90126E0690028C9D00126CE
:10279000C7E74FF0FF30EDE7381DFFF78DFDB86A52
:1027A00018B107F11800FFF787FDF96A01202269C7
:1027B00088401043206101EB810108EB8100391D45
:1027C000FFF7BEFDF86A2168C96A8842C9D30126AD
:1027D000C7E700001C000020A00300202DE9F047FF
:1027E0002C4D00242746286B38B1FFF7B5FD286B28
:1027F000401E2863286B40B146E0502080F31188CA
:10280000BFF34F8FBFF36F8FFEE7A968224E012001
:10281000D1B3A6F52A7980463068E8B1F068C4687B
:1028200004F11800FFF748FD201DFFF745FDE06AA1
:102830002A6908FA00F11143296100EB800109EBD4
:102840008100211DFFF77CFDE06A2968C96A884282
:10285000E2D3C5F81C80DFE70CB1FFF785FCAC695B
:1028600044B14646FFF754FF00B1EE61641EF9D152
:102870000020A861E86938B10849012738070860D5
:10288000BFF34F8FBFF36F8FFFF786FD3846BDE86C
:10289000F08700001C0000204806002004ED00E046
:1028A000FC280008A9180008000000000000000033
:1028B000800000000000000000000000F028000878
:1028C000B1180008FDFF00000000000080000000BB
:1028D00000000000000000000000000000000000F8
:1028E00001020304060708090000000001020304B6
:1028F0006D795461736B303100000000646566616E
:10290000756C745461736B00282900080000002066
:1029100084000000741D0008AC2900088400002019
:1029200004460000841D00080000000000000000B4
:102930000000000001000000100000000000000086
:102940000024F4000000000000000000000000006F
:102950000000000000000000000000000000000077
:102960000000000000000000000000000000000067
:102970000000000000000000000000000000000057
:102980000000000000000000000000000000000047
:102990000000000000000000000000000000000037
:0C29A00000000000AAAAAAAA0000000083
:040000050800018965
:00000001FF
